{
  "_format": "hh-sol-artifact-1",
  "contractName": "RamMint",
  "sourceName": "contracts/RamMint.sol",
  "abi": [
    {
      "inputs": [
        {
          "internalType": "string",
          "name": "_name",
          "type": "string"
        },
        {
          "internalType": "string",
          "name": "_symbol",
          "type": "string"
        }
      ],
      "stateMutability": "nonpayable",
      "type": "constructor"
    },
    {
      "inputs": [
        {
          "internalType": "address",
          "name": "spender",
          "type": "address"
        },
        {
          "internalType": "uint256",
          "name": "allowance",
          "type": "uint256"
        },
        {
          "internalType": "uint256",
          "name": "needed",
          "type": "uint256"
        }
      ],
      "name": "ERC20InsufficientAllowance",
      "type": "error"
    },
    {
      "inputs": [
        {
          "internalType": "address",
          "name": "sender",
          "type": "address"
        },
        {
          "internalType": "uint256",
          "name": "balance",
          "type": "uint256"
        },
        {
          "internalType": "uint256",
          "name": "needed",
          "type": "uint256"
        }
      ],
      "name": "ERC20InsufficientBalance",
      "type": "error"
    },
    {
      "inputs": [
        {
          "internalType": "address",
          "name": "approver",
          "type": "address"
        }
      ],
      "name": "ERC20InvalidApprover",
      "type": "error"
    },
    {
      "inputs": [
        {
          "internalType": "address",
          "name": "receiver",
          "type": "address"
        }
      ],
      "name": "ERC20InvalidReceiver",
      "type": "error"
    },
    {
      "inputs": [
        {
          "internalType": "address",
          "name": "sender",
          "type": "address"
        }
      ],
      "name": "ERC20InvalidSender",
      "type": "error"
    },
    {
      "inputs": [
        {
          "internalType": "address",
          "name": "spender",
          "type": "address"
        }
      ],
      "name": "ERC20InvalidSpender",
      "type": "error"
    },
    {
      "inputs": [
        {
          "internalType": "address",
          "name": "owner",
          "type": "address"
        }
      ],
      "name": "OwnableInvalidOwner",
      "type": "error"
    },
    {
      "inputs": [
        {
          "internalType": "address",
          "name": "account",
          "type": "address"
        }
      ],
      "name": "OwnableUnauthorizedAccount",
      "type": "error"
    },
    {
      "anonymous": false,
      "inputs": [
        {
          "indexed": true,
          "internalType": "address",
          "name": "admin",
          "type": "address"
        }
      ],
      "name": "AdminAdded",
      "type": "event"
    },
    {
      "anonymous": false,
      "inputs": [
        {
          "indexed": true,
          "internalType": "address",
          "name": "admin",
          "type": "address"
        }
      ],
      "name": "AdminRemoved",
      "type": "event"
    },
    {
      "anonymous": false,
      "inputs": [
        {
          "indexed": true,
          "internalType": "address",
          "name": "owner",
          "type": "address"
        },
        {
          "indexed": true,
          "internalType": "address",
          "name": "spender",
          "type": "address"
        },
        {
          "indexed": false,
          "internalType": "uint256",
          "name": "value",
          "type": "uint256"
        }
      ],
      "name": "Approval",
      "type": "event"
    },
    {
      "anonymous": false,
      "inputs": [
        {
          "indexed": true,
          "internalType": "address",
          "name": "previousOwner",
          "type": "address"
        },
        {
          "indexed": true,
          "internalType": "address",
          "name": "newOwner",
          "type": "address"
        }
      ],
      "name": "OwnershipTransferred",
      "type": "event"
    },
    {
      "anonymous": false,
      "inputs": [
        {
          "indexed": true,
          "internalType": "string",
          "name": "symbol",
          "type": "string"
        }
      ],
      "name": "TokenLocked",
      "type": "event"
    },
    {
      "anonymous": false,
      "inputs": [
        {
          "indexed": true,
          "internalType": "string",
          "name": "symbol",
          "type": "string"
        }
      ],
      "name": "TokenUnlocked",
      "type": "event"
    },
    {
      "anonymous": false,
      "inputs": [
        {
          "indexed": true,
          "internalType": "address",
          "name": "to",
          "type": "address"
        },
        {
          "indexed": false,
          "internalType": "uint256",
          "name": "amount",
          "type": "uint256"
        }
      ],
      "name": "TokensMinted",
      "type": "event"
    },
    {
      "anonymous": false,
      "inputs": [
        {
          "indexed": true,
          "internalType": "address",
          "name": "from",
          "type": "address"
        },
        {
          "indexed": true,
          "internalType": "address",
          "name": "to",
          "type": "address"
        },
        {
          "indexed": false,
          "internalType": "uint256",
          "name": "value",
          "type": "uint256"
        }
      ],
      "name": "Transfer",
      "type": "event"
    },
    {
      "inputs": [
        {
          "internalType": "address",
          "name": "_address",
          "type": "address"
        }
      ],
      "name": "addAdmin",
      "outputs": [],
      "stateMutability": "nonpayable",
      "type": "function"
    },
    {
      "inputs": [
        {
          "internalType": "address",
          "name": "owner",
          "type": "address"
        },
        {
          "internalType": "address",
          "name": "spender",
          "type": "address"
        }
      ],
      "name": "allowance",
      "outputs": [
        {
          "internalType": "uint256",
          "name": "",
          "type": "uint256"
        }
      ],
      "stateMutability": "view",
      "type": "function"
    },
    {
      "inputs": [
        {
          "internalType": "address",
          "name": "spender",
          "type": "address"
        },
        {
          "internalType": "uint256",
          "name": "value",
          "type": "uint256"
        }
      ],
      "name": "approve",
      "outputs": [
        {
          "internalType": "bool",
          "name": "",
          "type": "bool"
        }
      ],
      "stateMutability": "nonpayable",
      "type": "function"
    },
    {
      "inputs": [
        {
          "internalType": "address",
          "name": "account",
          "type": "address"
        }
      ],
      "name": "balanceOf",
      "outputs": [
        {
          "internalType": "uint256",
          "name": "",
          "type": "uint256"
        }
      ],
      "stateMutability": "view",
      "type": "function"
    },
    {
      "inputs": [],
      "name": "decimals",
      "outputs": [
        {
          "internalType": "uint8",
          "name": "",
          "type": "uint8"
        }
      ],
      "stateMutability": "view",
      "type": "function"
    },
    {
      "inputs": [
        {
          "internalType": "string",
          "name": "_symbol",
          "type": "string"
        }
      ],
      "name": "isTokenLocked",
      "outputs": [
        {
          "internalType": "bool",
          "name": "",
          "type": "bool"
        }
      ],
      "stateMutability": "view",
      "type": "function"
    },
    {
      "inputs": [
        {
          "internalType": "string",
          "name": "_symbol",
          "type": "string"
        }
      ],
      "name": "lockToken",
      "outputs": [],
      "stateMutability": "nonpayable",
      "type": "function"
    },
    {
      "inputs": [],
      "name": "name",
      "outputs": [
        {
          "internalType": "string",
          "name": "",
          "type": "string"
        }
      ],
      "stateMutability": "view",
      "type": "function"
    },
    {
      "inputs": [],
      "name": "owner",
      "outputs": [
        {
          "internalType": "address",
          "name": "",
          "type": "address"
        }
      ],
      "stateMutability": "view",
      "type": "function"
    },
    {
      "inputs": [
        {
          "internalType": "address",
          "name": "_address",
          "type": "address"
        }
      ],
      "name": "removeAdmin",
      "outputs": [],
      "stateMutability": "nonpayable",
      "type": "function"
    },
    {
      "inputs": [],
      "name": "renounceOwnership",
      "outputs": [],
      "stateMutability": "nonpayable",
      "type": "function"
    },
    {
      "inputs": [],
      "name": "symbol",
      "outputs": [
        {
          "internalType": "string",
          "name": "",
          "type": "string"
        }
      ],
      "stateMutability": "view",
      "type": "function"
    },
    {
      "inputs": [],
      "name": "totalSupply",
      "outputs": [
        {
          "internalType": "uint256",
          "name": "",
          "type": "uint256"
        }
      ],
      "stateMutability": "view",
      "type": "function"
    },
    {
      "inputs": [
        {
          "internalType": "address",
          "name": "to",
          "type": "address"
        },
        {
          "internalType": "uint256",
          "name": "value",
          "type": "uint256"
        }
      ],
      "name": "transfer",
      "outputs": [
        {
          "internalType": "bool",
          "name": "",
          "type": "bool"
        }
      ],
      "stateMutability": "nonpayable",
      "type": "function"
    },
    {
      "inputs": [
        {
          "internalType": "address",
          "name": "from",
          "type": "address"
        },
        {
          "internalType": "address",
          "name": "to",
          "type": "address"
        },
        {
          "internalType": "uint256",
          "name": "value",
          "type": "uint256"
        }
      ],
      "name": "transferFrom",
      "outputs": [
        {
          "internalType": "bool",
          "name": "",
          "type": "bool"
        }
      ],
      "stateMutability": "nonpayable",
      "type": "function"
    },
    {
      "inputs": [
        {
          "internalType": "address",
          "name": "newOwner",
          "type": "address"
        }
      ],
      "name": "transferOwnership",
      "outputs": [],
      "stateMutability": "nonpayable",
      "type": "function"
    },
    {
      "inputs": [
        {
          "internalType": "string",
          "name": "_symbol",
          "type": "string"
        },
        {
          "internalType": "address",
          "name": "_to",
          "type": "address"
        },
        {
          "internalType": "uint256",
          "name": "_amount",
          "type": "uint256"
        }
      ],
      "name": "unlockAndMint",
      "outputs": [],
      "stateMutability": "nonpayable",
      "type": "function"
    },
    {
      "inputs": [
        {
          "internalType": "string",
          "name": "_symbol",
          "type": "string"
        }
      ],
      "name": "unlockToken",
      "outputs": [],
      "stateMutability": "nonpayable",
      "type": "function"
    }
  ],
  "bytecode": "0x60806040523480156200001157600080fd5b5060405162002241380380620022418339818101604052810190620000379190620003a0565b33828281600390816200004b919062000670565b5080600490816200005d919062000670565b505050600073ffffffffffffffffffffffffffffffffffffffff168173ffffffffffffffffffffffffffffffffffffffff1603620000d55760006040517f1e4fbdf7000000000000000000000000000000000000000000000000000000008152600401620000cc91906200079c565b60405180910390fd5b620000e6816200014760201b60201c565b506001600760003373ffffffffffffffffffffffffffffffffffffffff1673ffffffffffffffffffffffffffffffffffffffff16815260200190815260200160002060006101000a81548160ff0219169083151502179055505050620007b9565b6000600560009054906101000a900473ffffffffffffffffffffffffffffffffffffffff16905081600560006101000a81548173ffffffffffffffffffffffffffffffffffffffff021916908373ffffffffffffffffffffffffffffffffffffffff1602179055508173ffffffffffffffffffffffffffffffffffffffff168173ffffffffffffffffffffffffffffffffffffffff167f8be0079c531659141344cd1fd0a4f28419497f9722a3daafe3b4186f6b6457e060405160405180910390a35050565b6000604051905090565b600080fd5b600080fd5b600080fd5b600080fd5b6000601f19601f8301169050919050565b7f4e487b7100000000000000000000000000000000000000000000000000000000600052604160045260246000fd5b62000276826200022b565b810181811067ffffffffffffffff821117156200029857620002976200023c565b5b80604052505050565b6000620002ad6200020d565b9050620002bb82826200026b565b919050565b600067ffffffffffffffff821115620002de57620002dd6200023c565b5b620002e9826200022b565b9050602081019050919050565b60005b8381101562000316578082015181840152602081019050620002f9565b60008484015250505050565b6000620003396200033384620002c0565b620002a1565b90508281526020810184848401111562000358576200035762000226565b5b62000365848285620002f6565b509392505050565b600082601f83011262000385576200038462000221565b5b81516200039784826020860162000322565b91505092915050565b60008060408385031215620003ba57620003b962000217565b5b600083015167ffffffffffffffff811115620003db57620003da6200021c565b5b620003e9858286016200036d565b925050602083015167ffffffffffffffff8111156200040d576200040c6200021c565b5b6200041b858286016200036d565b9150509250929050565b600081519050919050565b7f4e487b7100000000000000000000000000000000000000000000000000000000600052602260045260246000fd5b600060028204905060018216806200047857607f821691505b6020821081036200048e576200048d62000430565b5b50919050565b60008190508160005260206000209050919050565b60006020601f8301049050919050565b600082821b905092915050565b600060088302620004f87fffffffffffffffffffffffffffffffffffffffffffffffffffffffffffffffff82620004b9565b620005048683620004b9565b95508019841693508086168417925050509392505050565b6000819050919050565b6000819050919050565b6000620005516200054b62000545846200051c565b62000526565b6200051c565b9050919050565b6000819050919050565b6200056d8362000530565b620005856200057c8262000558565b848454620004c6565b825550505050565b600090565b6200059c6200058d565b620005a981848462000562565b505050565b5b81811015620005d157620005c560008262000592565b600181019050620005af565b5050565b601f8211156200062057620005ea8162000494565b620005f584620004a9565b8101602085101562000605578190505b6200061d6200061485620004a9565b830182620005ae565b50505b505050565b600082821c905092915050565b6000620006456000198460080262000625565b1980831691505092915050565b600062000660838362000632565b9150826002028217905092915050565b6200067b8262000425565b67ffffffffffffffff8111156200069757620006966200023c565b5b620006a382546200045f565b620006b0828285620005d5565b600060209050601f831160018114620006e85760008415620006d3578287015190505b620006df858262000652565b8655506200074f565b601f198416620006f88662000494565b60005b828110156200072257848901518255600182019150602085019450602081019050620006fb565b868310156200074257848901516200073e601f89168262000632565b8355505b6001600288020188555050505b505050505050565b600073ffffffffffffffffffffffffffffffffffffffff82169050919050565b6000620007848262000757565b9050919050565b620007968162000777565b82525050565b6000602082019050620007b360008301846200078b565b92915050565b611a7880620007c96000396000f3fe608060405234801561001057600080fd5b50600436106101165760003560e01c806370a08231116100a2578063a9059cbb11610071578063a9059cbb146102cf578063c10924ec146102ff578063dd62ed3e1461031b578063f2fde38b1461034b578063f91272e11461036757610116565b806370a0823114610259578063715018a6146102895780638da5cb5b1461029357806395d89b41146102b157610116565b806323b872dd116100e957806323b872dd146101a357806327b2c128146101d3578063313ce567146102035780633933496c14610221578063704802751461023d57610116565b806306fdde031461011b578063095ea7b3146101395780631785f53c1461016957806318160ddd14610185575b600080fd5b610123610383565b60405161013091906113a5565b60405180910390f35b610153600480360381019061014e919061146f565b610415565b60405161016091906114ca565b60405180910390f35b610183600480360381019061017e91906114e5565b610438565b005b61018d6104de565b60405161019a9190611521565b60405180910390f35b6101bd60048036038101906101b8919061153c565b6104e8565b6040516101ca91906114ca565b60405180910390f35b6101ed60048036038101906101e891906116c4565b610517565b6040516101fa91906114ca565b60405180910390f35b61020b61054c565b6040516102189190611729565b60405180910390f35b61023b600480360381019061023691906116c4565b610555565b005b610257600480360381019061025291906114e5565b61065d565b005b610273600480360381019061026e91906114e5565b610703565b6040516102809190611521565b60405180910390f35b61029161074b565b005b61029b61075f565b6040516102a89190611753565b60405180910390f35b6102b9610789565b6040516102c691906113a5565b60405180910390f35b6102e960048036038101906102e4919061146f565b61081b565b6040516102f691906114ca565b60405180910390f35b6103196004803603810190610314919061176e565b61083e565b005b610335600480360381019061033091906117dd565b610993565b6040516103429190611521565b60405180910390f35b610365600480360381019061036091906114e5565b610a1a565b005b610381600480360381019061037c91906116c4565b610aa0565b005b6060600380546103929061184c565b80601f01602080910402602001604051908101604052809291908181526020018280546103be9061184c565b801561040b5780601f106103e05761010080835404028352916020019161040b565b820191906000526020600020905b8154815290600101906020018083116103ee57829003601f168201915b5050505050905090565b600080610420610ba8565b905061042d818585610bb0565b600191505092915050565b610440610bc2565b6000600760008373ffffffffffffffffffffffffffffffffffffffff1673ffffffffffffffffffffffffffffffffffffffff16815260200190815260200160002060006101000a81548160ff0219169083151502179055508073ffffffffffffffffffffffffffffffffffffffff167fa3b62bc36326052d97ea62d63c3d60308ed4c3ea8ac079dd8499f1e9c4f80c0f60405160405180910390a250565b6000600254905090565b6000806104f3610ba8565b9050610500858285610c49565b61050b858585610cdd565b60019150509392505050565b600060068260405161052991906118b9565b908152602001604051809103902060009054906101000a900460ff169050919050565b60006012905090565b600760003373ffffffffffffffffffffffffffffffffffffffff1673ffffffffffffffffffffffffffffffffffffffff16815260200190815260200160002060009054906101000a900460ff166105e1576040517f08c379a00000000000000000000000000000000000000000000000000000000081526004016105d89061191c565b60405180910390fd5b60006006826040516105f391906118b9565b908152602001604051809103902060006101000a81548160ff0219169083151502179055508060405161062691906118b9565b60405180910390207ff1e49c919624f4c1ca9f35c30b3d1801e3382005f6976b9609d308ad44fa6ceb60405160405180910390a250565b610665610bc2565b6001600760008373ffffffffffffffffffffffffffffffffffffffff1673ffffffffffffffffffffffffffffffffffffffff16815260200190815260200160002060006101000a81548160ff0219169083151502179055508073ffffffffffffffffffffffffffffffffffffffff167f44d6d25963f097ad14f29f06854a01f575648a1ef82f30e562ccd3889717e33960405160405180910390a250565b60008060008373ffffffffffffffffffffffffffffffffffffffff1673ffffffffffffffffffffffffffffffffffffffff168152602001908152602001600020549050919050565b610753610bc2565b61075d6000610dd1565b565b6000600560009054906101000a900473ffffffffffffffffffffffffffffffffffffffff16905090565b6060600480546107989061184c565b80601f01602080910402602001604051908101604052809291908181526020018280546107c49061184c565b80156108115780601f106107e657610100808354040283529160200191610811565b820191906000526020600020905b8154815290600101906020018083116107f457829003601f168201915b5050505050905090565b600080610826610ba8565b9050610833818585610cdd565b600191505092915050565b600760003373ffffffffffffffffffffffffffffffffffffffff1673ffffffffffffffffffffffffffffffffffffffff16815260200190815260200160002060009054906101000a900460ff166108ca576040517f08c379a00000000000000000000000000000000000000000000000000000000081526004016108c19061191c565b60405180910390fd5b6006836040516108da91906118b9565b908152602001604051809103902060009054906101000a900460ff1615610936576040517f08c379a000000000000000000000000000000000000000000000000000000000815260040161092d90611988565b60405180910390fd5b6109408282610e97565b8173ffffffffffffffffffffffffffffffffffffffff167f3f2c9d57c068687834f0de942a9babb9e5acab57d516d3480a3c16ee165a4273826040516109869190611521565b60405180910390a2505050565b6000600160008473ffffffffffffffffffffffffffffffffffffffff1673ffffffffffffffffffffffffffffffffffffffff16815260200190815260200160002060008373ffffffffffffffffffffffffffffffffffffffff1673ffffffffffffffffffffffffffffffffffffffff16815260200190815260200160002054905092915050565b610a22610bc2565b600073ffffffffffffffffffffffffffffffffffffffff168173ffffffffffffffffffffffffffffffffffffffff1603610a945760006040517f1e4fbdf7000000000000000000000000000000000000000000000000000000008152600401610a8b9190611753565b60405180910390fd5b610a9d81610dd1565b50565b600760003373ffffffffffffffffffffffffffffffffffffffff1673ffffffffffffffffffffffffffffffffffffffff16815260200190815260200160002060009054906101000a900460ff16610b2c576040517f08c379a0000000000000000000000000000000000000000000000000000000008152600401610b239061191c565b60405180910390fd5b6001600682604051610b3e91906118b9565b908152602001604051809103902060006101000a81548160ff02191690831515021790555080604051610b7191906118b9565b60405180910390207fb7d2c10ac964ee2abdc658ee545fb073d44414d451b9d24ec004d001f9a4df7960405160405180910390a250565b600033905090565b610bbd8383836001610f19565b505050565b610bca610ba8565b73ffffffffffffffffffffffffffffffffffffffff16610be861075f565b73ffffffffffffffffffffffffffffffffffffffff1614610c4757610c0b610ba8565b6040517f118cdaa7000000000000000000000000000000000000000000000000000000008152600401610c3e9190611753565b60405180910390fd5b565b6000610c558484610993565b90507fffffffffffffffffffffffffffffffffffffffffffffffffffffffffffffffff8114610cd75781811015610cc7578281836040517ffb8f41b2000000000000000000000000000000000000000000000000000000008152600401610cbe939291906119a8565b60405180910390fd5b610cd684848484036000610f19565b5b50505050565b600073ffffffffffffffffffffffffffffffffffffffff168373ffffffffffffffffffffffffffffffffffffffff1603610d4f5760006040517f96c6fd1e000000000000000000000000000000000000000000000000000000008152600401610d469190611753565b60405180910390fd5b600073ffffffffffffffffffffffffffffffffffffffff168273ffffffffffffffffffffffffffffffffffffffff1603610dc15760006040517fec442f05000000000000000000000000000000000000000000000000000000008152600401610db89190611753565b60405180910390fd5b610dcc8383836110f0565b505050565b6000600560009054906101000a900473ffffffffffffffffffffffffffffffffffffffff16905081600560006101000a81548173ffffffffffffffffffffffffffffffffffffffff021916908373ffffffffffffffffffffffffffffffffffffffff1602179055508173ffffffffffffffffffffffffffffffffffffffff168173ffffffffffffffffffffffffffffffffffffffff167f8be0079c531659141344cd1fd0a4f28419497f9722a3daafe3b4186f6b6457e060405160405180910390a35050565b600073ffffffffffffffffffffffffffffffffffffffff168273ffffffffffffffffffffffffffffffffffffffff1603610f095760006040517fec442f05000000000000000000000000000000000000000000000000000000008152600401610f009190611753565b60405180910390fd5b610f15600083836110f0565b5050565b600073ffffffffffffffffffffffffffffffffffffffff168473ffffffffffffffffffffffffffffffffffffffff1603610f8b5760006040517fe602df05000000000000000000000000000000000000000000000000000000008152600401610f829190611753565b60405180910390fd5b600073ffffffffffffffffffffffffffffffffffffffff168373ffffffffffffffffffffffffffffffffffffffff1603610ffd5760006040517f94280d62000000000000000000000000000000000000000000000000000000008152600401610ff49190611753565b60405180910390fd5b81600160008673ffffffffffffffffffffffffffffffffffffffff1673ffffffffffffffffffffffffffffffffffffffff16815260200190815260200160002060008573ffffffffffffffffffffffffffffffffffffffff1673ffffffffffffffffffffffffffffffffffffffff1681526020019081526020016000208190555080156110ea578273ffffffffffffffffffffffffffffffffffffffff168473ffffffffffffffffffffffffffffffffffffffff167f8c5be1e5ebec7d5bd14f71427d1e84f3dd0314c0f7b2291e5b200ac8c7c3b925846040516110e19190611521565b60405180910390a35b50505050565b600073ffffffffffffffffffffffffffffffffffffffff168373ffffffffffffffffffffffffffffffffffffffff16036111425780600260008282546111369190611a0e565b92505081905550611215565b60008060008573ffffffffffffffffffffffffffffffffffffffff1673ffffffffffffffffffffffffffffffffffffffff168152602001908152602001600020549050818110156111ce578381836040517fe450d38c0000000000000000000000000000000000000000000000000000000081526004016111c5939291906119a8565b60405180910390fd5b8181036000808673ffffffffffffffffffffffffffffffffffffffff1673ffffffffffffffffffffffffffffffffffffffff16815260200190815260200160002081905550505b600073ffffffffffffffffffffffffffffffffffffffff168273ffffffffffffffffffffffffffffffffffffffff160361125e57806002600082825403925050819055506112ab565b806000808473ffffffffffffffffffffffffffffffffffffffff1673ffffffffffffffffffffffffffffffffffffffff168152602001908152602001600020600082825401925050819055505b8173ffffffffffffffffffffffffffffffffffffffff168373ffffffffffffffffffffffffffffffffffffffff167fddf252ad1be2c89b69c2b068fc378daa952ba7f163c4a11628f55a4df523b3ef836040516113089190611521565b60405180910390a3505050565b600081519050919050565b600082825260208201905092915050565b60005b8381101561134f578082015181840152602081019050611334565b60008484015250505050565b6000601f19601f8301169050919050565b600061137782611315565b6113818185611320565b9350611391818560208601611331565b61139a8161135b565b840191505092915050565b600060208201905081810360008301526113bf818461136c565b905092915050565b6000604051905090565b600080fd5b600080fd5b600073ffffffffffffffffffffffffffffffffffffffff82169050919050565b6000611406826113db565b9050919050565b611416816113fb565b811461142157600080fd5b50565b6000813590506114338161140d565b92915050565b6000819050919050565b61144c81611439565b811461145757600080fd5b50565b60008135905061146981611443565b92915050565b60008060408385031215611486576114856113d1565b5b600061149485828601611424565b92505060206114a58582860161145a565b9150509250929050565b60008115159050919050565b6114c4816114af565b82525050565b60006020820190506114df60008301846114bb565b92915050565b6000602082840312156114fb576114fa6113d1565b5b600061150984828501611424565b91505092915050565b61151b81611439565b82525050565b60006020820190506115366000830184611512565b92915050565b600080600060608486031215611555576115546113d1565b5b600061156386828701611424565b935050602061157486828701611424565b92505060406115858682870161145a565b9150509250925092565b600080fd5b600080fd5b7f4e487b7100000000000000000000000000000000000000000000000000000000600052604160045260246000fd5b6115d18261135b565b810181811067ffffffffffffffff821117156115f0576115ef611599565b5b80604052505050565b60006116036113c7565b905061160f82826115c8565b919050565b600067ffffffffffffffff82111561162f5761162e611599565b5b6116388261135b565b9050602081019050919050565b82818337600083830152505050565b600061166761166284611614565b6115f9565b90508281526020810184848401111561168357611682611594565b5b61168e848285611645565b509392505050565b600082601f8301126116ab576116aa61158f565b5b81356116bb848260208601611654565b91505092915050565b6000602082840312156116da576116d96113d1565b5b600082013567ffffffffffffffff8111156116f8576116f76113d6565b5b61170484828501611696565b91505092915050565b600060ff82169050919050565b6117238161170d565b82525050565b600060208201905061173e600083018461171a565b92915050565b61174d816113fb565b82525050565b60006020820190506117686000830184611744565b92915050565b600080600060608486031215611787576117866113d1565b5b600084013567ffffffffffffffff8111156117a5576117a46113d6565b5b6117b186828701611696565b93505060206117c286828701611424565b92505060406117d38682870161145a565b9150509250925092565b600080604083850312156117f4576117f36113d1565b5b600061180285828601611424565b925050602061181385828601611424565b9150509250929050565b7f4e487b7100000000000000000000000000000000000000000000000000000000600052602260045260246000fd5b6000600282049050600182168061186457607f821691505b6020821081036118775761187661181d565b5b50919050565b600081905092915050565b600061189382611315565b61189d818561187d565b93506118ad818560208601611331565b80840191505092915050565b60006118c58284611888565b915081905092915050565b7f4e6f7420617574686f72697a6564000000000000000000000000000000000000600082015250565b6000611906600e83611320565b9150611911826118d0565b602082019050919050565b60006020820190508181036000830152611935816118f9565b9050919050565b7f546f6b656e206973206c6f636b65640000000000000000000000000000000000600082015250565b6000611972600f83611320565b915061197d8261193c565b602082019050919050565b600060208201905081810360008301526119a181611965565b9050919050565b60006060820190506119bd6000830186611744565b6119ca6020830185611512565b6119d76040830184611512565b949350505050565b7f4e487b7100000000000000000000000000000000000000000000000000000000600052601160045260246000fd5b6000611a1982611439565b9150611a2483611439565b9250828201905080821115611a3c57611a3b6119df565b5b9291505056fea2646970667358221220dec8969b447557922ea7d2df263ee869bb42bfb6ff006609cb63612a838237ac64736f6c63430008140033",
  "linkReferences": {},
  "deployedLinkReferences": {}
}